:020000040800F2
:1000000044060020B1020008190300081903000883
:100010001903000819030008190300080000000074
:1000200000000000000000000000000019030008AC
:10003000190300080000000019030008411000081F
:100040001903000819030008190300081903000820
:1000500019030008190300088D0E00081903000891
:100060001903000819030008190300081903000800
:1000700019030008190300081903000819030008F0
:1000800019030008190300081903000819030008E0
:1000900019030008190300081903000819030008D0
:1000A00019030008190300081903000819030008C0
:1000B00019030008190300081903000819030008B0
:1000C00019030008190300081903000819030008A0
:1000D00019030008C10F00081903000819030008DC
:1000E0001903000819030008190300081903000880
:1000F0001903000819030008190300081903000870
:10010000190300081903000819030008190300085F
:10011000190300081903000819030008190300084F
:10012000190300081903000819030008190300083F
:100130005FF808F180B500AF154B154A126842F020
:1001400001021A60124A124B5968124B01EA03036A
:1001500053600F4A0E4B1B6823F0847323F48033E3
:1001600013600B4B0A4A126822F480221A60084B73
:10017000074A526822F4FE025A60054B4FF41F02F0
:100180009A6000F00BF8044B4FF000629A6080BD5B
:10019000001002400000FFF800ED00E080B500AF65
:1001A00000F002F880BD00BF80B483B000AF4FF014
:1001B00000037B604FF000033B603B4B3A4A126800
:1001C00042F480321A60384B1B6803F400333B6002
:1001D0007B6803F101037B603B68002B03D17B68E4
:1001E000B3F5A06FEFD1304B1B6803F40033002B45
:1001F00003D04FF001033B6002E04FF000033B608F
:100200003B68012B4BD1294B284A126842F010025F
:100210001A60264B254A126822F003021A60234B0B
:10022000224A126842F002021A601F4B1E4A5268AC
:100230005A601D4B1C4A52685A601B4B1A4A52683E
:1002400042F480625A60184B174A526822F47C12BA
:100250005A60154B144A526842F4E8125A60124B25
:10026000114A126842F080721A6000BF0E4B1B6880
:1002700003F00073002BF9D00B4B0B4A526822F0AD
:1002800003025A60084B084A526842F002025A6060
:1002900000BF054B5B6803F00C03082BF9D107F195
:1002A0000C07BD4680BC7047001002400020024091
:1002B00080B582B000AF134B7B60134B3B600BE00B
:1002C0007B681A683B681A603B6803F104033B6073
:1002D0007B6803F104037B603A680C4B9A42EFD3CE
:1002E0000B480C494FF000028842B8BF40F8042B7D
:1002F000FADBFFF71FFF00F0DFFE07F10807BD463E
:1003000080BD00BF48190008000000202800002020
:10031000280000204802002080B400AFFEE700BFA4
:1003200080B489B000AF786039604FF00003FB61A2
:100330004FF000033B614FF00003BB614FF000033F
:10034000FB604FF000037B614FF00003BB603B6834
:10035000DB7803F00F03FB613B68DB7803F01003ED
:10036000002B05D03B689B78FA6942EA0303FB61E6
:100370003B681B8803F0FF03002B51D07B681B6890
:100380007B614FF00003BB6144E0BB694FF00102A9
:1003900002FA03F3FB603B681B881A46FB6802EA1B
:1003A00003033B613A69FB689A422FD1BB694FEA6C
:1003B0008303FB60FB684FF00F0202FA03F3BB609C
:1003C000BB686FEA03037A6902EA03037B61FB6897
:1003D000FA6902FA03F37A6942EA03037B613B6834
:1003E000DB78282B07D1BB694FF0010202FA03F238
:1003F0007B685A610AE03B68DB78482B06D1BB6911
:100400004FF0010202FA03F27B681A61BB6903F143
:100410000103BB61BB69072BB7D97B687A691A6096
:100420003B681B88FF2B56D97B685B687B614FF06C
:100430000003BB6149E0BB6903F108034FF001020F
:1004400002FA03F3FB603B681B881A46FB6802EA6A
:1004500003033B613A69FB689A4232D1BB694FEAB8
:100460008303FB60FB684FF00F0202FA03F3BB60EB
:10047000BB686FEA03037A6902EA03037B61FB68E6
:10048000FA6902FA03F37A6942EA03037B613B6883
:10049000DB78282B08D1BB6903F108034FF0010278
:1004A00002FA03F27B685A613B68DB78482B08D17B
:1004B000BB6903F108034FF0010202FA03F27B6803
:1004C0001A61BB6903F10103BB61BB69072BB2D998
:1004D0007B687A695A6007F12407BD4680BC704783
:1004E00080B485B000AF78600B467B804FF000038E
:1004F000FB737B689A687B8802EA0303002B03D0B6
:100500004FF00103FB7302E04FF00003FB73FB7B32
:10051000184607F11407BD4680BC704780B483B00D
:1005200000AF78600B467B807A887B681A6107F1A0
:100530000C07BD4680BC704780B483B000AF7860C4
:100540000B467B807A887B685A6107F10C07BD46B1
:1005500080BC704790B484B000AF02460B46FA717D
:10056000BB714FF00003FB60BB7903F003034FEA5C
:1005700083034FF00F0202FA03F3FB601B4BBA79BF
:100580004FEA9202D2B21949B8794FEA9000C0B24C
:1005900000F1020051F82000F9686FEA010100EA59
:1005A000010102F1020243F82210104BBA794FEA1E
:1005B0009202D2B20D49B8794FEA9000C0B200F170
:1005C000020051F82000FC79B97901F003014FEAEB
:1005D000810104FA01F140EA010102F1020243F84B
:1005E000221007F11007BD4690BC70470000014083
:1005F00080B483B000AF03463960FB7197F90730D0
:10060000002B0DDA0E49FB7903F00F03A3F104036D
:100610003A68D2B24FEA0212D2B2CB181A760AE086
:10062000084997F907303A68D2B24FEA0212D2B2BB
:10063000CB1883F8002307F10C07BD4680BC704738
:1006400000ED00E000E100E080B582B000AF78602E
:100650007A686FF07F439A4202D94FF0010316E0A7
:100660000D4B7A6822F07F4202F1FF325A604FF060
:10067000FF304FF00F01FFF7BBFF074B4FF00002B9
:100680009A60054B4FF007021A604FF000031846BE
:1006900007F10807BD4680BD10E000E080B582B0DC
:1006A00000AF4FF000033B601C484FF48041FFF760
:1006B00043FF1A484FF40051FFF73EFF4FF000038D
:1006C000FB7122E03B684FEA43033B6013484FF461
:1006D0000041FFF705FF0346002B04D03B6843F0C1
:1006E00001033B6003E03B6803F0FE033B600B4803
:1006F0004FF40051FFF712FF08484FF40051FFF785
:100700001BFFFB7903F10103FB71FB79072BD9D99F
:100710003B68184607F10807BD4680BD000C014044
:1007200080B584B000AF78601D484FF48041FFF77A
:1007300003FF1B484FF40051FFF7FEFE4FF000038C
:10074000FB7321E07B6803F08003002B05D0144885
:100750004FF48041FFF7E2FE04E011484FF480417E
:10076000FFF7EAFE0E484FF40051FFF7D7FE0C48A2
:100770004FF40051FFF7E0FE7B684FEA43037B60D4
:10078000FB7B03F10103FB73FB7B072BDAD90448E6
:100790004FF48041FFF7D0FE07F11007BD4680BD42
:1007A000000C014080B582B000AF78600D484FF476
:1007B0008051FFF7C1FE7B6803F47F434FEA1323A8
:1007C0001846FFF7ADFF7B6803F0FF031846FFF7FD
:1007D000A7FF04484FF48051FFF7A0FE07F1080778
:1007E000BD4680BD000C014080B582B000AF78608E
:1007F0007B6803F47F434FEA13231846FFF790FF0B
:100800007B6803F0FF031846FFF78AFF07F108072C
:10081000BD4680BD80B500AF1C484FF48071FFF726
:100820008BFE1B4B1B681846FFF7BCFF194B1B6860
:100830001846FFF7B7FF184B1B681846FFF7B2FFC3
:10084000154B1B6843F040031846FFF7ABFF104BF6
:100850001B6843F080031846FFF7A4FF0D4B1B688D
:1008600043F002031846FFF79DFF0C4B4FF00002C8
:10087000C3F80821094B4FF00002C3F804210348D4
:100880004FF02001FFF758FE80BD00BF000C014073
:100890002419000830190008201900083000002031
:1008A00080B500AF314B1B681846FFF77BFF2F4B1D
:1008B0001B6843F002031846FFF774FF2C4B1B68BC
:1008C0001846FFF76FFF2B4B1B681846FFF76AFFB0
:1008D000294B1B681846FFF765FF284B1B68184615
:1008E000FFF760FF264B1B681846FFF75BFF254BA1
:1008F0001B681846FFF756FF204B1B6843F0200388
:100900001846FFF74FFF4FF0040000F067F91B4B4C
:100910001B6843F080031846FFF744FF154B1B6824
:1009200043F040031846FFF73DFF104B1B68184685
:10093000FFF738FF0D4B1B6843F002031846FFF723
:1009400031FF11484FF48071FFF7F6FD0F4B4FF068
:100950000002C3F808210D4B4FF00002C3F8042138
:1009600009484FF02001FFF7E7FD80BD301900086E
:1009700038190008201900083C190008241900083B
:100980002819000840190008000C01403000002020
:1009900080B584B000AF7860396070484FF02001B6
:1009A000FFF7BCFD6E4B1B681846FFF7FBFE6D4B57
:1009B0001B6843F080031846FFF7F4FE684B1B6882
:1009C00043F020031846FFF7EDFE64484FF48051D2
:1009D000FFF7B2FD00BF61484FF40041FFF780FD13
:1009E0000346002BF7D0604B1B6843F0AA03184660
:1009F000FFF7FAFE00BF59484FF40041FFF770FDC2
:100A00000346002BF7D0584B1B6843F02D031846C4
:100A1000FFF7EAFE00BF51484FF40041FFF760FDC9
:100A20000346002BF7D0504B1B6843F0D403184605
:100A3000FFF7DAFE00BF49484FF40041FFF750FDD1
:100A40000346002BF7D0484B1B681A463B6842EA26
:100A500003031846FFF7C8FE4FF00003FB6018E0E1
:100A600000BF3E484FF40041FFF73AFD0346002B1C
:100A7000F7D0FB687A68D3181B781A463A4B1B6884
:100A800042EA03031846FFF7AFFEFB6803F10103D8
:100A9000FB60FA683B689A42E2D37868396800F0F4
:100AA000C5F803467B8100BF2C484FF40041FFF797
:100AB00017FD0346002BF7D07B8903F0FF022A4B7A
:100AC0001B6842EA03031846FFF78EFE00BF234867
:100AD0004FF40041FFF704FD0346002BF7D07B895C
:100AE0004FEA13239BB21A461F4B1B6842EA0303CB
:100AF0001846FFF779FE00BF18484FF40041FFF792
:100B0000EFFC0346002BF7D0174B1B681846FFF786
:100B10006BFE00BF11484FF40041FFF7E1FC0346B4
:100B2000002BF7D00D484FF48051FFF7F7FC0C4B2A
:100B30001B6843F080031846FFF734FE094B1B681F
:100B400043F040031846FFF72DFE04484FF0200104
:100B5000FFF7F2FC07F11007BD4680BD000C014015
:100B600024190008201900082C19000880B582B04B
:100B700000AF7860396017484FF02001FFF7CEFCD6
:100B800012E000BF14484FF0800100F0AFFD0346B3
:100B9000002BF7D07B681B780F48194600F080FDCA
:100BA0007B6803F101037B603B68002B0CBF0023D3
:100BB0000123DBB23A6802F1FF323A60002BE0D148
:100BC00004484FF02001FFF7B7FC07F10807BD46C6
:100BD00080BD00BF000C01400038014080B485B0EA
:100BE00000AF0346FB800FE04FF00003FB8105E000
:100BF000FB899BB203F101039BB2FB81FB899AB293
:100C000040F2F3139A42F3D9FB88002B0CBF002368
:100C10000123DBB2FA8802F1FF32FA80002BE3D124
:100C200007F11407BD4680BC704700BF80B485B093
:100C300000AF786039604FF6FF73FB6027E07B6898
:100C40001B784FEA0323FA6882EA0303FB607B68A0
:100C500003F101037B604FF00003FB7214E0FB68BB
:100C600003F40043002B07D0FB684FEA430383F4EF
:100C7000805383F0210302E0FB684FEA4303FB60EB
:100C8000FB7A03F10103FB72FB7A072BE7D93B6880
:100C9000002B0CBF00230123DBB23A6802F1FF32C4
:100CA0003A60002BCBD1FB689BB2184607F11407C2
:100CB000BD4680BC704700BF80B586B000AF44F22F
:100CC0001D004FF0010100F0C7FA4FF4E243BB8270
:100CD0004FF00103BB754FF01003FB7507F11403D0
:100CE0003E481946FFF71CFB4FF40043BB824FF010
:100CF0000103BB754FF04803FB7507F11403374838
:100D00001946FFF70DFB4FF00103BB754FF00403CD
:100D1000FB754FF00103BB8207F114032F481946FE
:100D2000FFF7FEFA4FF001004FF00001FFF712FC51
:100D30004FF02003BB824FF00103BB754FF010034F
:100D4000FB7507F1140325481946FFF7E9FA4FF43C
:100D50008063BB824FF00303BB754FF00403FB7548
:100D600007F114031E481946FFF7DAFA4FF400732F
:100D7000BB824FF00303BB754FF01803FB7507F1FF
:100D8000140317481946FFF7CBFA4FF416537B604C
:100D90004FF000033B814FF000037B814FF00003D5
:100DA000BB814FF000033B824FF00C03FB8107F146
:100DB00004030C48194600F027FB0A484FF00101D4
:100DC00000F0FAFB074840F225514FF0010200F015
:100DD00013FC07F11807BD4680BD00BF000C0140A1
:100DE000000801400038014080B584B000AF4FF0EA
:100DF00000604FF0000100F07DFD4FF4E06000F076
:100E0000FBFC4FF001037B604FF000033B724FF09F
:100E100008037B724FF00103BB7207F1040318460D
:100E200000F03CFA4FF006033B734FF000037B7376
:100E30004FF00003BB734FF00103FB7307F10C038A
:100E4000184600F0EBFC4FF025033B734FF0000316
:100E50007B734FF00003BB734FF00103FB7307F18B
:100E60000C03184600F0DAFC064B1A68064BA3FB8D
:100E700002134FEA93131846FFF7E6FB07F110073A
:100E8000BD4680BD00000020D34D621098B500AF74
:100E90004FF0010000F080FA0346012B40F0818002
:100EA00042484FF48051FFF739FB40484FF48071BE
:100EB000FFF742FB3E4BD3F80831002B4BD03C4BA5
:100EC000D3F80441FFF7EAFB0346DAB2384B1A5570
:100ED000374BD3F8043103F10102354BC3F8042139
:100EE000334BD3F80421334B1B689A4254D3324B13
:100EF0001B681846FFF756FC2C484FF48071FFF72B
:100F00000DFB2C4B1B6803F1FF33294AD35C4FEADE
:100F100003239AB2274B1B68A3F102032449CB5C3D
:100F2000D3189AB2254B1A80214BD3F808312048A8
:100F30001946FFF77BFE03461A46204B1B889A4250
:100F400006D11B4BD3F8083119481946FFF70EFE9E
:100F5000FFF760FC20E0FFF7A1FB03461A46154BA4
:100F60001A60144B1B68002B14D0124B1B68FE2B0D
:100F700010D80E484FF02001FFF7D0FA0D4B1A6839
:100F80000B4BC3F808210B4B1B6803F10202094B02
:100F90001A6001E0FFF73EFC04484FF48071FFF750
:100FA000BDFA4FF0010000F021FA98BD000C01409D
:100FB000300000203C0100203019000828000020EB
:100FC00098B500AF1B4840F2255100F0AFFB034637
:100FD000002B2ED0184BD3F80031002B04D117482A
:100FE0004FF02001FFF79AFA134BD3F80041114854
:100FF00000F06AFB0346DAB20F4B1A5504F1010206
:101000000D4BC3F800210C4B4FF00002C3F8042134
:10101000094BD3F80031FE2B0BD9064840F225517D
:101020004FF0000200F0E8FA034B4FF47A72C3F875
:10103000042198BD0038014040010020000C01400F
:1010400080B500AF194BD3F80031002B2DD0174BD2
:10105000D3F8043103F10102144BC3F80421134BFC
:10106000D3F8042140F2E7339A421ED9104840F2E7
:1010700025514FF0000200F0BFFA0C4BD3F80031BD
:101080000A481946FFF784FC084B4FF00002C3F8EA
:10109000002108484FF02001FFF74EFA044840F2C3
:1010A00025514FF0010200F0A7FA80BD4001002059
:1010B00000380140000C014080B500AFFFF7FCFD97
:1010C000FFF792FE4FF47A70FFF788FD4FF47A70C5
:1010D000FFF784FDFFF7E4FBFEE700BF80B487B0B5
:1010E00000AF78604FF000037B614FF000033B617D
:1010F0004FF00003FB604FF00003BB60514B5B6897
:1011000003F00C037B617B69042B07D0082B09D00B
:10111000002B35D17B684C4A1A6035E07B684A4A1F
:101120001A6031E0474B5B6803F470133B61454B39
:101130005B6803F48033FB603B694FEA934303F140
:1011400002033B61FB68002B06D13B693F4A02FB6F
:1011500003F27B681A6017E03A4B5B6803F40033D4
:10116000002B06D03B69394A02FB03F27B681A6008
:101170000AE03B69344A02FB03F27B681A6003E031
:101180007B68314A1A6000BF2E4B5B6803F0F003A6
:101190007B617B694FEA13137B612D4A7B69D3180E
:1011A0001B78DBB2BB607B681A68BB6822FA03F26B
:1011B0007B685A60234B5B6803F4E0637B617B6967
:1011C0004FEA13237B61224A7B69D3181B78DBB279
:1011D000BB607B685A68BB6822FA03F27B689A603E
:1011E000184B5B6803F460537B617B694FEAD32340
:1011F0007B61174A7B69D3181B78DBB2BB607B68C5
:101200005A68BB6822FA03F27B68DA600D4B5B68B0
:1012100003F440437B617B694FEA93337B610D4A62
:101220007B69D3181B78DBB2BB607B68DA68BB686C
:10123000B2FBF3F27B681A6107F11C07BD4680BC64
:10124000704700BF0010024000127A0000093D0004
:10125000140000202400002080B483B000AF786028
:101260000B46FB70FB78002B07D00B4B0A4A9169A9
:101270007A6841EA02029A6108E0074B064A9169DE
:101280007A686FEA020201EA02029A6107F10C072A
:10129000BD4680BC704700BF0010024080B485B0DE
:1012A00000AF78604FF00003FB603A4BFB607B6857
:1012B0009B79002B59D0374B364A11687A681268EF
:1012C0006FEA020201EA02021A60324B314A5168A7
:1012D0007A6812686FEA020201EA02025A607B68C9
:1012E0001B79FA68D318FB60FB68FA6811687A68A2
:1012F000126841EA02021A60264B264A91687A680F
:1013000012686FEA020201EA02029A60214B214A46
:10131000D1687A6812686FEA020201EA0202DA60B2
:101320007B685B79102B10D11A4B1A4A91687A6846
:10133000126841EA02029A60164B164AD1687A682E
:10134000126841EA0202DA601EE0124BFB607B6821
:101350005B79FA68D318FB60FB68FA6811687A68F1
:10136000126841EA02021A600EE07B681B79FA6893
:10137000D318FB60FB68FA6811687A6812686FEA34
:10138000020201EA02021A6007F11407BD4680BC9E
:10139000704700BF0004014080B485B000AF7860A2
:1013A0004FF00003FB734FF00003BB600E4B1A6855
:1013B0007B6802EA0303BB600B4B5A697B6802EA55
:1013C0000303002B06D0BB68002B03D04FF00103B2
:1013D000FB7302E04FF00003FB73FB7B184607F141
:1013E0001407BD4680BC70470004014080B483B040
:1013F00000AF7860034B7A685A6107F10C07BD466D
:1014000080BC70470004014080B58CB000AF7860AC
:1014100039604FF00003FB624FF00003BB624FF0F6
:1014200000037B624FF000033B624FF00003FB615F
:101430007B68FB617B681B8A9BB2FB62FA6A4CF695
:10144000FF7302EA0303FB623B68DB88FA6A42EA45
:101450000303FB62FB6A9AB27B681A827B689B89F2
:101460009BB2FB62FA6A4EF6F31302EA0303FB62D5
:101470003B689A883B681B8942EA03039AB23B683F
:101480005B8942EA03039BB2FA6A42EA0303FB6206
:10149000FB6A9AB27B689A817B689B8A9BB2FB62EB
:1014A000FA6A4FF6FF4302EA0303FB623B689B893B
:1014B000FA6A42EA0303FB62FB6A9AB27B689A8289
:1014C00007F108031846FFF709FEFA69384B9A42FC
:1014D00002D17B69BB6201E03B69BB627B689B898F
:1014E0009BB29BB21BB2002B0FDABA6A13464FEACB
:1014F00083039B184FEA83029A183B681B684FEAE4
:101500004303B2FBF3F37B620EE0BA6A13464FEA81
:1015100083039B184FEA83029A183B681B684FEAC3
:101520008303B2FBF3F37B627A6A224BA3FB0213C1
:101530004FEA53134FEA0313FB62FB6A4FEA13139C
:101540004FF0640202FB03F37A6AD31A3B627B68B2
:101550009B899BB29BB21BB2002B10DA3B6A4FEA0D
:10156000C30303F13202134BA3FB02134FEA5313DD
:1015700003F00703FA6A42EA0303FB620FE03B6AE7
:101580004FEA031303F132020A4BA3FB02134FEAA3
:10159000531303F00F03FA6A42EA0303FB62FB6A88
:1015A0009AB27B681A8107F13007BD4680BD00BF43
:1015B000003801401F85EB5180B483B000AF7860E4
:1015C0000B46FB70FB78002B08D07B689B899BB295
:1015D00043F400539AB27B689A8107E07B689B8949
:1015E0009BB223F400539AB27B689A8107F10C07EF
:1015F000BD4680BC704700BF80B487B000AF786044
:1016000013460A467A807B704FF000033B614FF02F
:101610000003FB604FF00003BB604FF000037B61F1
:101620007B687B617B88DBB24FEA5313DBB23B61A3
:101630007B8803F01F03FB60FB684FF0010202FA96
:1016400003F3BB603B69012B04D17B6903F10C03FD
:101650007B610BE03B69022B04D17B6903F1100332
:101660007B6103E07B6903F114037B617B78002BD2
:1016700007D07B697A691168BA6841EA02021A6088
:1016800008E07B697A691168BA686FEA020201EAC8
:1016900002021A6007F11C07BD4680BC704700BFFC
:1016A00080B483B000AF78600B467B807B884FEAC4
:1016B000C3534FEAD3539AB27B689A8007F10C0761
:1016C000BD4680BC704700BF80B483B000AF786077
:1016D0007B689B889BB24FEAC3534FEAD3539BB2BC
:1016E000184607F10C07BD4680BC704780B485B032
:1016F00000AF78600B467B804FF00003FB737B6884
:101700001B889AB27B8802EA03039BB2002B03D0AA
:101710004FF00103FB7302E04FF00003FB73FB7B10
:10172000184607F11407BD4680BC704780B487B0E7
:1017300000AF78600B467B804FF00003FB604FF0FA
:1017400000037B614FF00003BB604FF00003FB74AC
:101750007B88DBB24FEA5313DBB2BB607B8803F0BC
:101760001F037B617B694FF0010202FA03F37B6187
:10177000BB68012B07D17B689B899BB27A6902EA1F
:1017800003037B6111E0BB68022B07D17B681B8AD6
:101790009BB27A6902EA03037B6106E07B689B8A5D
:1017A0009BB27A6902EA03037B617B884FEA1323C9
:1017B0009BB2FB60FB684FF0010202FA03F3FB608F
:1017C0007B681B889BB2FA6802EA0303FB607B69B3
:1017D000002B06D0FB68002B03D04FF00103FB74F5
:1017E00002E04FF00003FB74FB7C184607F11C0776
:1017F000BD4680BC704700BF80B483B000AF786046
:10180000054A7B6843F0BE6343F42023D36007F1AD
:101810000C07BD4680BC704700ED00E080B487B087
:1018200000AF78604FF000037B614FF000033B6135
:101830004FF00F03FB607B68DB78002B3FD02B4B16
:10184000DB686FEA030303F4E0634FEA13237B6171
:101850007B69C3F104033B617B69FA6822FA03F3F5
:10186000FB607B685B781A463B6902FA03F37B6195
:101870007B689B781A46FB6802EA03037A6942EAAE
:1018800003037B617B694FEA03137B6118497B6823
:101890001B787A69D2B2CB1883F80023144B7A688C
:1018A00012784FEA5212D2B27968097801F01F011A
:1018B0004FF0010000FA01F143F8221011E00C4B47
:1018C0007A6812784FEA5212D2B27968097801F038
:1018D0001F014FF0010000FA01F102F1200243F86C
:1018E000221007F11C07BD4680BC704700ED00E0E8
:1018F00000E100E080B483B000AF78603960074A4F
:101900003B6823F0604323F07F0379680B439360C7
:1019100007F10C07BD4680BC704700BF00ED00E03A
:101920001880000000820000A194000000B80000B0
:1019300081CA00002CC20000D7C40000D8A4000057
:081940003098000023C60000EE
:1019480000A24A0400000000000000000102030495
:10195800060708090000000001020304010203044D
:08196800060708090204060845
:0400000508000000EF
:00000001FF
