:020000040800F2
:1000000044060020250100088D0100088D0100082C
:100010008D0100088D0100088D010008000000001E
:100020000000000000000000000000008D0100083A
:100030008D010008000000008D0100083910000843
:100040008D0100088D0100088D0100088D01000858
:100050008D0100088D010008710E00088D01000857
:100060008D0100088D0100088D0100088D01000838
:100070008D0100088D0100088D0100088D01000828
:100080008D0100088D0100088D01000800000000AE
:100090000000000000000000000000008D010008CA
:1000A0008D0100088D0100088D0100088D010008F8
:1000B0008D0100088D0100088D0100088D010008E8
:1000C0008D0100088D0100088D0100088D010008D8
:1000D0008D010008B90F00088D0100088D0100088E
:1000E0008D0100088D0100088D010008000000004E
:1000F0000000000000000000000000000000000000
:1001000000000000000000000000000000000000EF
:1001100000000000000000008D0100088D010008B3
:100120005FF808F180B582B000AF134B7B60134BD2
:100130003B600BE07B681A683B681A603B6803F120
:1001400004033B607B6803F104037B603A680C4B5B
:100150009A42EFD30B480C494FF000028842B8BFD7
:1001600040F8042BFADB00F015F800F0A1FF07F1CE
:100170000807BD4680BD00BF4019000800000020F0
:1001800028000020280000204802002080B400AF92
:10019000FEE700BF80B500AF174B174A126842F068
:1001A00001021A60144A144B5968144B01EA030304
:1001B0005360114A104B1B6823F0847323F480337F
:1001C00013600D4B0C4A126822F480221A600A4B0D
:1001D000094A526822F4FE025A60074B4FF41F028C
:1001E0009A60054B4FF00002DA6200F00BF8044B06
:1001F0004FF000629A6080BD001002400000FFF8DE
:1002000000ED00E080B500AF00F002F880BD00BF57
:1002100080B483B000AF4FF000037B604FF0000369
:100220003B60314B304A126842F480321A602E4BE8
:100230001B6803F400333B607B6803F101037B60C0
:100240003B68002B03D17B68B3F5A06FEFD1264B41
:100250001B6803F40033002B03D04FF001033B6015
:1002600002E04FF000033B603B68012B37D11E4B8F
:100270001D4A52685A601C4B1B4A52685A601A4BFE
:10028000194A52685A60184B174A526822F47C1275
:100290005A60154B144A526842F498125A60124B35
:1002A000114A126842F080721A6000BF0E4B1B6840
:1002B00003F00073002BF9D00B4B0B4A526822F06D
:1002C00003025A60084B084A526842F002025A6020
:1002D00000BF054B5B6803F00C03082BF9D107F155
:1002E0000C07BD4680BC70470010024080B489B046
:1002F00000AF786039604FF00003FB614FF00003FE
:100300003B614FF00003BB614FF00003FB604FF017
:1003100000037B614FF00003BB603B68DB7803F0B8
:100320000F03FB613B68DB7803F01003002B05D063
:100330003B689B78FA6942EA0303FB613B681B88D0
:1003400003F0FF03002B51D07B681B687B614FF0EB
:100350000003BB6144E0BB694FF0010202FA03F302
:10036000FB603B681B881A46FB6802EA03033B619B
:100370003A69FB689A422FD1BB694FEA8303FB605D
:10038000FB684FF00F0202FA03F3BB60BB686FEA31
:1003900003037A6902EA03037B61FB68FA6902FAE4
:1003A00003F37A6942EA03037B613B68DB78282B1D
:1003B00007D1BB694FF0010202FA03F27B685A6170
:1003C0000AE03B68DB78482B06D1BB694FF001029D
:1003D00002FA03F27B681A61BB6903F10103BB6196
:1003E000BB69072BB7D97B687A691A603B681B88A1
:1003F000FF2B56D97B685B687B614FF00003BB61C4
:1004000049E0BB6903F108034FF0010202FA03F36C
:10041000FB603B681B881A46FB6802EA03033B61EA
:100420003A69FB689A4232D1BB694FEA8303FB60A9
:10043000FB684FF00F0202FA03F3BB60BB686FEA80
:1004400003037A6902EA03037B61FB68FA6902FA33
:1004500003F37A6942EA03037B613B68DB78282B6C
:1004600008D1BB6903F108034FF0010202FA03F25D
:100470007B685A613B68DB78482B08D1BB6903F184
:1004800008034FF0010202FA03F27B681A61BB69AC
:1004900003F10103BB61BB69072BB2D97B687A69A1
:1004A0005A6007F12407BD4680BC704780B485B010
:1004B00000AF78600B467B804FF00003FB737B68D6
:1004C0009A687B8802EA0303002B03D04FF00103F4
:1004D000FB7302E04FF00003FB73FB7B184607F150
:1004E0001407BD4680BC704780B483B000AF78600D
:1004F0000B467B807A887B681A6107F10C07BD4642
:1005000080BC704780B483B000AF78600B467B80BE
:100510007A887B685A6107F10C07BD4680BC70473A
:1005200090B484B000AF02460B46FA71BB714FF035
:100530000003FB60BB7903F003034FEA83034FF032
:100540000F0202FA03F3FB601B4BBA794FEA9202E7
:10055000D2B21949B8794FEA9000C0B200F1020056
:1005600051F82000F9686FEA010100EA010102F187
:10057000020243F82210104BBA794FEA9202D2B22B
:100580000D49B8794FEA9000C0B200F1020051F86D
:100590002000FC79B97901F003014FEA810104FAE6
:1005A00001F140EA010102F1020243F8221007F1D1
:1005B0001007BD4690BC70470000014080B483B076
:1005C00000AF03463960FB7197F90730002B0DDA55
:1005D0000E49FB7903F00F03A3F104033A68D2B28A
:1005E0004FEA0212D2B2CB181A760AE0084997F9FC
:1005F00007303A68D2B24FEA0212D2B2CB1883F86F
:10060000002307F10C07BD4680BC704700ED00E0F9
:1006100000E100E080B582B000AF78607A686FF0EA
:100620007F439A4202D94FF0010316E00D4B7A68DE
:1006300022F07F4202F1FF325A604FF0FF304FF05C
:100640000F01FFF7BBFF074B4FF000029A60054B0D
:100650004FF007021A604FF00003184607F1080731
:10066000BD4680BD10E000E080B582B000AF4FF025
:1006700000033B601C484FF48041FFF743FF1A48DA
:100680004FF40051FFF73EFF4FF00003FB7122E0F3
:100690003B684FEA43033B6013484FF40041FFF7C8
:1006A00005FF0346002B04D03B6843F001033B6089
:1006B00003E03B6803F0FE033B600B484FF400513E
:1006C000FFF712FF08484FF40051FFF71BFFFB79BB
:1006D00003F10103FB71FB79072BD9D93B6818465D
:1006E00007F10807BD4680BD000C014080B584B00D
:1006F00000AF78601D484FF48041FFF703FF1B48AF
:100700004FF40051FFF7FEFE4FF00003FB7321E0B2
:100710007B6803F08003002B05D014484FF4804120
:10072000FFF7E2FE04E011484FF48041FFF7EAFED4
:100730000E484FF40051FFF7D7FE0C484FF400511C
:10074000FFF7E0FE7B684FEA43037B60FB7B03F12E
:100750000103FB73FB7B072BDAD904484FF480417C
:10076000FFF7D0FE07F11007BD4680BD000C014029
:1007700080B582B000AF78600D484FF48051FFF72C
:10078000C1FE7B6803F47F434FEA13231846FFF74B
:10079000ADFF7B6803F0FF031846FFF7A7FF04488F
:1007A0004FF48051FFF7A0FE07F10807BD4680BD5A
:1007B000000C014080B582B000AF78607B6803F424
:1007C0007F434FEA13231846FFF790FF7B6803F03F
:1007D000FF031846FFF78AFF07F10807BD4680BDF3
:1007E00080B500AF1C484FF48071FFF78BFE1B4BA8
:1007F0001B681846FFF7BCFF194B1B681846FFF72C
:10080000B7FF184B1B681846FFF7B2FF154B1B6864
:1008100043F040031846FFF7ABFF104B1B6843F053
:1008200080031846FFF7A4FF0D4B1B6843F002033B
:100830001846FFF79DFF0C4B4FF00002C3F808214C
:10084000094B4FF00002C3F8042108484FF48071AF
:10085000FFF758FE80BD00BF000C01401C190008C6
:100860002819000818190008300000200010014065
:1008700080B500AF314B1B681846FFF779FF2F4B4F
:100880001B6843F002031846FFF772FF2C4B1B68EE
:100890001846FFF76DFF2B4B1B681846FFF768FFE4
:1008A000294B1B681846FFF763FF284B1B68184647
:1008B000FFF75EFF264B1B681846FFF759FF254BD5
:1008C0001B681846FFF754FF204B1B6843F02003BA
:1008D0001846FFF74DFF4FF0040000F06BF91B4B7B
:1008E0001B6843F080031846FFF742FF154B1B6857
:1008F00043F040031846FFF73BFF104B1B681846B8
:10090000FFF736FF0D4B1B6843F002031846FFF755
:100910002FFF11484FF48071FFF7F4FD0F4B4FF09C
:100920000002C3F808210D4B4FF00002C3F8042168
:100930000B484FF48071FFF7E5FD80BD28190008D2
:100940003019000818190008341900081C1900088B
:100950002019000838190008000C01403000002060
:100960000010014080B584B000AF786039607048F5
:100970004FF48071FFF7B8FD6E4B1B681846FFF708
:10098000F7FE6D4B1B6843F080031846FFF7F0FE3F
:10099000684B1B6843F020031846FFF7E9FE6748E1
:1009A0004FF48051FFF7AEFD00BF64484FF40041A3
:1009B000FFF77CFD0346002BF7D0614B1B6843F02B
:1009C000AA031846FFF7F6FE00BF5C484FF400414B
:1009D000FFF76CFD0346002BF7D0594B1B6843F023
:1009E0002D031846FFF7E6FE00BF54484FF40041C0
:1009F000FFF75CFD0346002BF7D0514B1B6843F01B
:100A0000D4031846FFF7D6FE00BF4C484FF4004110
:100A1000FFF74CFD0346002BF7D0494B1B681A46E5
:100A20003B6842EA03031846FFF7C4FE4FF0000399
:100A3000FB6018E000BF41484FF40041FFF736FD6E
:100A40000346002BF7D0FB687A68D3181B781A4648
:100A50003B4B1B6842EA03031846FFF7ABFEFB68FB
:100A600003F10103FB60FA683B689A42E2D37868BD
:100A7000396800F0C7F803467B8100BF2F484FF468
:100A80000041FFF713FD0346002BF7D07B8903F0ED
:100A9000FF022B4B1B6842EA03031846FFF78AFE4E
:100AA00000BF26484FF40041FFF700FD0346002B2E
:100AB000F7D07B894FEA13239BB21A46204B1B6861
:100AC00042EA03031846FFF775FE00BF1B484FF4C8
:100AD0000041FFF7EBFC0346002BF7D0184B1B68D7
:100AE0001846FFF767FE00BF14484FF40041FFF7B8
:100AF000DDFC0346002BF7D010484FF48051FFF780
:100B0000F3FC0C4B1B6843F080031846FFF730FEE4
:100B1000094B1B6843F040031846FFF729FE0448C1
:100B20004FF48071FFF7EEFC07F11007BD4680BD62
:100B3000001001401C19000818190008000C0140A1
:100B40002419000880B582B000AF7860396017487A
:100B50004FF40071FFF7C8FC12E000BF14484FF0DB
:100B6000800100F0BFFD0346002BF7D07B681B78A7
:100B70000F48194600F090FD7B6803F101037B608C
:100B80003B68002B0CBF00230123DBB23A6802F163
:100B9000FF323A60002BE0D104484FF40071FFF7B8
:100BA000B1FC07F10807BD4680BD00BF0010014041
:100BB0000038014080B485B000AF0346FB800FE0F1
:100BC0004FF00003FB8105E0FB899BB203F10103B9
:100BD0009BB2FB81FB899AB240F2F3139A42F3D99C
:100BE000FB88002B0CBF00230123DBB2FA8802F143
:100BF000FF32FA80002BE3D107F11407BD4680BC19
:100C0000704700BF80B485B000AF786039604FF6A0
:100C1000FF73FB812CE07B681B784FEA03239AB2B9
:100C2000FB8982EA03039BB2FB817B6803F101032A
:100C30007B604FF000037B7317E0FB891BB2002B36
:100C40000ADAFB894FEA43039BB283F4805383F0B3
:100C500021039BB29BB203E0FB894FEA43039BB2A3
:100C6000FB817B7B03F101037B737B7B072BE4D947
:100C70003B68002B0CBF00230123DBB23A6802F172
:100C8000FF323A60002BC6D1FB89184607F11407E2
:100C9000BD4680BC704700BF80B586B000AF44F24F
:100CA0001D004FF0010100F0D3FA4FF4E243BB8284
:100CB0004FF00103BB754FF01003FB7507F11403F0
:100CC0003E481946FFF712FB4FF40043BB824FF03A
:100CD0000103BB754FF04803FB7507F11403374858
:100CE0001946FFF703FB4FF00103BB754FF00403F8
:100CF000FB754FF00103BB8207F114032F4819461F
:100D0000FFF7F4FA4FF001004FF00001FFF708FC85
:100D10004FF44073BB824FF00103BB754FF01003DB
:100D2000FB7507F1140326481946FFF7DFFA4FF465
:100D30008063BB824FF00303BB754FF00403FB7568
:100D400007F114031F481946FFF7D0FA4FF4007358
:100D5000BB824FF00303BB754FF01803FB7507F11F
:100D6000140318481946FFF7C1FA4FF416537B6075
:100D70004FF000033B814FF000037B814FF00003F5
:100D8000BB814FF000033B824FF00C03FB8107F166
:100D900004030D48194600F033FB0B484FF00101E6
:100DA00000F006FC084840F225514FF0010200F027
:100DB0001FFC07F11807BD4680BD00BF000C0140B5
:100DC00000100140000801400038014080B584B0A7
:100DD00000AF4FF000604FF0000100F087FD4FF4CE
:100DE000E06000F005FD4FF001037B604FF0000371
:100DF0003B724FF008037B724FF00103BB7207F1A7
:100E00000403184600F046FA4FF006033B734FF018
:100E100000037B734FF00003BB734FF00103FB73C0
:100E200007F10C03184600F0F5FC4FF025033B7367
:100E30004FF000037B734FF00003BB734FF00103CF
:100E4000FB7307F10C03184600F0E4FC064B1A682C
:100E5000064BA3FB02134FEA93131846FFF7DAFB86
:100E600007F11007BD4680BD00000020D34D621081
:100E700098B500AF4FF0010000F08AFA0346012B4D
:100E800040F0888046484FF48051FFF72DFB4448DE
:100E90004FF48071FFF736FB424BD3F80831002B3B
:100EA00052D0404BD3F80441FFF7DEFB0346DAB2E1
:100EB0003C4B1A553B4BD3F8043103F10102394B3B
:100EC000C3F80421374BD3F80421374B1B689A42EF
:100ED0005BD3364B1B681846FFF74AFC30484FF48B
:100EE0008071FFF701FB304B1B6803F1FF332D4A84
:100EF000D35C4FEA03239AB22B4B1B68A3F1020386
:100F00002849CB5CD3189AB2294B1A80254BD3F8C9
:100F1000083124481946FFF775FE03461A46244B4C
:100F20001B889A420DD11F4BD3F808311D48194632
:100F3000FFF708FE1B4BD3F808311A481946FFF794
:100F400011FDFFF74DFC20E0FFF78EFB03461A462C
:100F5000154B1A60144B1B68002B14D0124B1B68E6
:100F6000FE2B10D813484FF48071FFF7BDFA0E4BDB
:100F70001A680C4BC3F808210B4B1B6803F10202E3
:100F8000094B1A6001E0FFF72BFC05484FF4807114
:100F9000FFF7AAFA4FF0010000F024FA98BD00BF55
:100FA000000C0140300000203C01002028190008FE
:100FB000280000200010014098B500AF1B4840F207
:100FC000255100F0AFFB0346002B2ED0184BD3F871
:100FD0000031002B04D117484FF40071FFF784FA59
:100FE000134BD3F80041114800F06AFB0346DAB214
:100FF0000F4B1A5504F101020D4BC3F800210C4BA5
:101000004FF00002C3F80421094BD3F80031FE2B46
:101010000BD9064840F225514FF0000200F0E8FAE3
:10102000034B4FF4FA72C3F8042198BD0038014015
:10103000400100200010014080B500AF194BD3F8EB
:101040000031002B2DD0174BD3F8043103F10102EE
:10105000144BC3F80421134BD3F8042140F2F313CB
:101060009A421ED9104840F225514FF0000200F07C
:10107000BFFA0C4BD3F800310A481946FFF772FC4F
:10108000084B4FF00002C3F8002108484FF40071EC
:10109000FFF738FA044840F225514FF0010200F002
:1010A000A7FA80BD40010020003801400010014037
:1010B00080B500AFFFF7F0FDFFF788FE4FF47A70C0
:1010C000FFF778FD4FF47A70FFF774FDFFF7D0FB60
:1010D000FEE700BF80B489B000AF78604FF0000336
:1010E000FB614FF00003BB614FF000037B614FF0E9
:1010F00000033B614FF00003FB60504B5B6803F063
:101100000C03FB61FB69042B07D0082B09D0002BD3
:1011100032D17B684A4A1A6032E07B68484A1A60DA
:101120002EE0464B5B6803F47013BB61434B5B6876
:1011300003F480337B61BB694FEA934303F10203FD
:10114000BB617B69002B06D1BB693E4A02FB03F2FF
:101150007B681A6014E0394BDB6A03F00F0303F17C
:101160000103FB60364AFB68B2FBF3F3BA6902FB8A
:1011700003F27B681A6003E07B68314A1A6000BFA3
:101180002E4B5B6803F0F003FB61FB694FEA13131E
:10119000FB612D4AFB69D3181B78DBB23B617B688E
:1011A0001A683B6922FA03F27B685A60234B5B683A
:1011B00003F4E063FB61FB694FEA1323FB61224AFE
:1011C000FB69D3181B78DBB23B617B685A683B69CB
:1011D00022FA03F27B689A60184B5B6803F4605351
:1011E000FB61FB694FEAD323FB61174AFB69D31804
:1011F0001B78DBB23B617B685A683B6922FA03F2D9
:101200007B68DA600D4B5B6803F44043FB61FB696C
:101210004FEA9333FB610D4AFB69D3181B78DBB2AD
:101220003B617B68DA683B69B2FBF3F27B681A6169
:1012300007F12407BD4680BC704700BF0010024084
:1012400000127A0000093D00140000202400002054
:1012500080B483B000AF78600B46FB70FB78002B46
:1012600007D00B4B0A4A91697A6841EA02029A61F7
:1012700008E0074B064A91697A686FEA020201EAC0
:1012800002029A6107F10C07BD4680BC704700BF9F
:101290000010024080B485B000AF78604FF00003CA
:1012A000FB603A4BFB607B689B79002B59D0374B36
:1012B000364A11687A6812686FEA020201EA02028D
:1012C0001A60324B314A51687A6812686FEA02023A
:1012D00001EA02025A607B681B79FA68D318FB6046
:1012E000FB68FA6811687A68126841EA02021A60BB
:1012F000264B264A91687A6812686FEA020201EA70
:1013000002029A60214B214AD1687A6812686FEA1A
:10131000020201EA0202DA607B685B79102B10D1CD
:101320001A4B1A4A91687A68126841EA02029A6076
:10133000164B164AD1687A68126841EA0202DA60EE
:101340001EE0124BFB607B685B79FA68D318FB6088
:10135000FB68FA6811687A68126841EA02021A604A
:101360000EE07B681B79FA68D318FB60FB68FA68AB
:1013700011687A6812686FEA020201EA02021A60D2
:1013800007F11407BD4680BC704700BF0004014050
:1013900080B485B000AF78604FF00003FB734FF06E
:1013A0000003BB600E4B1A687B6802EA0303BB6054
:1013B0000B4B5A697B6802EA0303002B06D0BB681B
:1013C000002B03D04FF00103FB7302E04FF000034A
:1013D000FB73FB7B184607F11407BD4680BC7047C2
:1013E0000004014080B483B000AF7860034B7A689A
:1013F0005A6107F10C07BD4680BC704700040140EC
:1014000080B58CB000AF786039604FF00003FB62AC
:101410004FF00003BB624FF000037B624FF000030C
:101420003B624FF00003FB617B68FB617B681B8ABA
:101430009BB2FB62FA6A4CF6FF7302EA0303FB629B
:101440003B68DB88FA6A42EA0303FB62FB6A9AB2F2
:101450007B681A827B689B899BB2FB62FA6A4EF6B4
:10146000F31302EA0303FB623B689A883B681B891B
:1014700042EA03039AB23B685B8942EA03039BB2E8
:10148000FA6A42EA0303FB62FB6A9AB27B689A81BA
:101490007B689B8A9BB2FB62FA6A4FF6FF4302EAC3
:1014A0000303FB623B689B89FA6A42EA0303FB621F
:1014B000FB6A9AB27B689A8207F108031846FFF725
:1014C00009FEFA69384B9A4202D17B69BB6201E09E
:1014D0003B69BB627B689B899BB29BB21BB2002BB2
:1014E0000FDABA6A13464FEA83039B184FEA830266
:1014F0009A183B681B684FEA4303B2FBF3F37B6225
:101500000EE0BA6A13464FEA83039B184FEA830240
:101510009A183B681B684FEA8303B2FBF3F37B62C4
:101520007A6A224BA3FB02134FEA53134FEA0313C9
:10153000FB62FB6A4FEA13134FF0640202FB03F3F2
:101540007A6AD31A3B627B689B899BB29BB21BB2BF
:10155000002B10DA3B6A4FEAC30303F13202134B4C
:10156000A3FB02134FEA531303F00703FA6A42EA9C
:101570000303FB620FE03B6A4FEA031303F13202FD
:101580000A4BA3FB02134FEA531303F00F03FA6A4B
:1015900042EA0303FB62FB6A9AB27B681A8107F195
:1015A0003007BD4680BD00BF003801401F85EB51AC
:1015B00080B483B000AF78600B46FB70FB78002BE3
:1015C00008D07B689B899BB243F400539AB27B6836
:1015D0009A8107E07B689B899BB223F400539AB2FF
:1015E0007B689A8107F10C07BD4680BC704700BF3D
:1015F00080B487B000AF786013460A467A807B706B
:101600004FF000033B614FF00003FB604FF000031D
:10161000BB604FF000037B617B687B617B88DBB242
:101620004FEA5313DBB23B617B8803F01F03FB607F
:10163000FB684FF0010202FA03F3BB603B69012B28
:1016400004D17B6903F10C037B610BE03B69022B46
:1016500004D17B6903F110037B6103E07B6903F133
:1016600014037B617B78002B07D07B697A69116852
:10167000BA6841EA02021A6008E07B697A69116877
:10168000BA686FEA020201EA02021A6007F11C0757
:10169000BD4680BC704700BF80B483B000AF7860A7
:1016A0000B467B807B884FEAC3534FEAD3539AB2F1
:1016B0007B689A8007F10C07BD4680BC704700BF6D
:1016C00080B483B000AF78607B689B889BB24FEAA0
:1016D000C3534FEAD3539BB2184607F10C07BD46DC
:1016E00080BC704780B485B000AF78600B467B80CB
:1016F0004FF00003FB737B681B889AB27B8802EA79
:1017000003039BB2002B03D04FF00103FB7302E0F5
:101710004FF00003FB73FB7B184607F11407BD462F
:1017200080BC704780B487B000AF78600B467B8088
:101730004FF00003FB604FF000037B614FF00003AC
:10174000BB604FF00003FB747B88DBB24FEA53139E
:10175000DBB2BB607B8803F01F037B617B694FF0CA
:10176000010202FA03F37B61BB68012B07D17B689E
:101770009B899BB27A6902EA03037B6111E0BB6833
:10178000022B07D17B681B8A9BB27A6902EA0303AA
:101790007B6106E07B689B8A9BB27A6902EA03035D
:1017A0007B617B884FEA13239BB2FB60FB684FF0A1
:1017B000010202FA03F3FB607B681B889BB2FA68A4
:1017C00002EA0303FB607B69002B06D0FB68002B59
:1017D00003D04FF00103FB7402E04FF00003FB74F1
:1017E000FB7C184607F11C07BD4680BC704700BF54
:1017F00080B483B000AF7860054A7B6843F0BE6375
:1018000043F42023D36007F10C07BD4680BC70472A
:1018100000ED00E080B487B000AF78604FF00003C7
:101820007B614FF000033B614FF00F03FB607B686F
:10183000DB78002B3FD02B4BDB686FEA030303F40C
:10184000E0634FEA13237B617B69C3F104033B61CF
:101850007B69FA6822FA03F3FB607B685B781A46BF
:101860003B6902FA03F37B617B689B781A46FB684D
:1018700002EA03037A6942EA03037B617B694FEA68
:1018800003137B6118497B681B787A69D2B2CB1845
:1018900083F80023144B7A6812784FEA5212D2B2BE
:1018A0007968097801F01F014FF0010000FA01F199
:1018B00043F8221011E00C4B7A6812784FEA52126A
:1018C000D2B27968097801F01F014FF0010000FAE7
:1018D00001F102F1200243F8221007F11C07BD4676
:1018E00080BC704700ED00E000E100E080B483B010
:1018F00000AF78603960074A3B6823F0604323F00B
:101900007F0379680B43936007F10C07BD4680BCE9
:10191000704700BF00ED00E018800000008200006A
:10192000A194000000B8000081CA00002CC2000091
:10193000D7C40000D8A400003098000023C60000DF
:1019400000366E01000000000000000001020304E8
:101950000607080900000000010203040102030455
:0819600006070809020406084D
:0400000508000000EF
:00000001FF
